:020000040000FA
:100000000A128A110C280134FE00030EF0000A08BF
:10001000F1000A168A11FD2D0A128A110F28831386
:10002000C230FD001530FE003630FF00A0308400E5
:100030000A168A11F2240A128A110A128A11FE275C
:100040000A128A11ED000A128A11FF270A128A1178
:10005000EE000A128A1103200A128A11FB0083168D
:100060000313C201C301C401C50183120313E001DC
:10007000E101E201E301E401E501E601E701E80154
:10008000E901EA01EB01EC01FA0183010A128A1588
:10009000982C83120313DA000A168A11A0270A1279
:1000A0008A111230831203136D06031D5828592834
:1000B000082A0A168A11E1240A128A11473083128B
:1000C0000313A0009130A1008030A2000A168A110B
:1000D000CA250A128A11831203136C08D40054072C
:1000E000A03E840083130008A000840A0008840353
:1000F000A1008630A2000A168A11CA250A128A11A6
:10010000413083120313A0009130A100C030A2003F
:100110000A168A11CA250A128A110A30F200003022
:10012000F300831203136B08D400D5015408F400C4
:100130005508F5000A128A151A200A128A11303061
:10014000720783120313A00073080318730AA10037
:10015000C630A2000A168A11CA250A128A11C730AF
:1001600083120313A0000A30F2000030F3006B0882
:10017000D400D5015408F4005508F5000A168A1178
:100180008B260A128A117208303E0A168A1101253E
:100190000A128A11C83083120313A0003A300A16DB
:1001A0008A1101250A128A11C93083120313A00093
:1001B0000A30F2000030F3006A08D400D501540878
:1001C000F4005508F5000A128A151A200A128A113D
:1001D0007208303E0A168A1101250A128A11CA30A5
:1001E00083120313A0000A30F2000030F3006A0803
:1001F000D400D5015408F4005508F5000A168A11F8
:100200008B260A128A117208303E0A168A110125BD
:100210000A128A111C3083120313A0009130A1002E
:100220009530A2000A168A11CA250A128A113330A3
:1002300083120313D600BB30D500DF30D400D40BBB
:100240001F29D50B1F29D60B1F290A168A11E12455
:100250000A128A117C3083120313A0009030A1008F
:100260008030A2000A168A11CA250A128A112C307F
:1002700083120313A0009130A100C030A2000A161F
:100280008A11CA250A128A11003083120313A000B2
:100290009030A100D030A2000A168A11CA250A1295
:1002A0008A11831203136B08D400D5015408F2009D
:1002B0005508F3003C30F4000030F5000A168A11AE
:1002C0007C250A128A11831203136A087207E2005E
:1002D0000030031801307307E3006308E10062088F
:1002E000E0006208F2006308F3000030F31BFF3007
:1002F000F400F50001300A128A15F9200A128A1159
:10030000750883120313AD007408AC007308AB00CA
:100310007208AA003E30A900EB30A8008530A70083
:100320001F30A6000A128A110F240A128A118312A2
:1003300003132908C3002808C2002708C1002608A3
:10034000C0000A128A1581200A128A11831203132F
:100350004108E5004008E4006208F2006308F30089
:100360000030F31BFF30F400F50001300A128A154B
:10037000F9200A128A11750883120313AD0074085C
:10038000AC007308AB007208AA003D30A900F5303C
:10039000A800C230A7008F30A6000A128A110F24CD
:1003A0000A128A11831203132908C3002808C20005
:1003B0002708C1002608C0000A128A1581200A12E7
:1003C0008A11831203134108E7004008E60064091C
:1003D000D4006509D500D40A0319D50A6608540269
:1003E000D6006708031C670A5502D7006208560743
:1003F00083160313C4008312031363080318630AEC
:10040000570783160313C50083120313071512152C
:100410001F305A06031D0D2A0E2A122A0711121127
:100420000530EE006B08D400D5015408F2005508E1
:10043000F3003C30F4000030F5000A168A117C25E8
:100440000A128A11831203136A087207E20000304D
:10045000031801307307E30008306C020318312AD7
:10046000322A912A64086002D4006508031C650AD8
:100470006102D50055086302031D402A5408620238
:10048000031C432A442A502A6430A0009130A10062
:100490008B30A2000A168A11CA250A128A11492B2A
:1004A0006409D4006509D500D40A0319D50A831656
:1004B00003134408831203135402D6008316031354
:1004C0004508031C450A831203135502D700600830
:1004D0005607D80061080318610A5707D900590860
:1004E0006302031D752A58086202031C782A792AC0
:1004F000852A6930A0009130A1008B30A2000A1635
:100500008A11CA250A128A11492B6930A00091303C
:10051000A1008B30A2000A168A11CA250A128A117C
:10052000492B6C08031D952A962A2C2B6208F20091
:100530006308F3000030F31BFF30F400F5000130D6
:100540000A128A15F9200A128A11750883120313F8
:10055000CB007408CA007308C9007208C80060089C
:10056000F2006108F3000030F31BFF30F400F500E7
:1005700001300A128A15F9200A128A1175088312AD
:100580000313C7007408C6007308C5007208C400CE
:100590006008F2006108F3000030F31BFF30F40044
:1005A000F50001300A128A15F9200A128A1175081D
:1005B00083120313AD007408AC007308AB0072081B
:1005C000AA003E30A900CC30A800CC30A700CD3026
:1005D000A6000A128A110F240A128A118312031329
:1005E0002908C3002808C2002708C1002608C00047
:1005F0000A168A1158250A128A1183120313430816
:10060000CF004208CE004108CD004008CC000A12BD
:100610008A1154270A128A11031C0F2B102B1E2B30
:100620004D3083120313A0009130A1008B30A20043
:100630000A168A11CA250A128A11492B69308312B7
:100640000313A0009130A1008B30A2000A168A117A
:10065000CA250A128A11492B09306C06031D312B59
:10066000322B3E2B6930A0009130A1008B30A200CC
:100670000A168A11CA250A128A11492B6430A00071
:100680009130A1008B30A2000A168A11CA250A12E5
:100690008A110A30F2000030F300831203136B0852
:1006A000D400D5015408F4005508F5000A128A1543
:1006B0001A200A128A113030720783120313A00025
:1006C00073080318730AA100C630A2000A168A1123
:1006D000CA250A128A11C73083120313A0000A30F8
:1006E000F2000030F3006B08D400D5015408F40088
:1006F0005508F5000A168A118B260A128A1172080B
:10070000303E0A168A1101250A128A11C830831256
:100710000313A0003A300A168A1101250A128A1121
:10072000C93083120313A0000A30F2000030F30036
:100730006A08D400D5015408F4005508F5000A12DF
:100740008A151A200A128A117208303E0A168A1176
:1007500001250A128A11CA3083120313A0000A303D
:10076000F2000030F3006A08D400D5015408F40008
:100770005508F5000A168A118B260A128A1172088A
:10078000303E0A168A1101250A128A1183120313B8
:100790006A08031DCC2BCD2B0E2C6B08031DD12B0F
:1007A000D22B0E2C0711121187140A168A11E1247C
:1007B0000A128A11123083120313A0009030A10094
:1007C0008030A2000A168A11CA250A128A11453001
:1007D00083120313A0009030A100C030A2000A16BB
:1007E0008A11CA250A128A11333083120313D600E4
:1007F000BB30D500DF30D400D40BFC2BD50BFC2B49
:10080000D60BFC2B831203138710EE01EE0A103077
:10081000ED000A168A11E1240A128A1108008312D7
:10082000031329088039B3002908AE002E07B90048
:10083000A81F1B2C1C2C1D2C391439080319212C22
:10084000222C312C390A031D262C272C2F2C00306A
:10085000A9000030A8000030A7000030A600A817AB
:10086000392C0030A9000030A8000030A70000306B
:10087000A6002D088039FF007F08B3062D08AE00C2
:100880002E07B400AC1F452C462C472C34143408DA
:1008900003194B2C4C2C5B2C340A031D502C512C6F
:1008A000592C0030AD000030AC000030AB000030FF
:1008B000AA00AC17632C0030AD000030AC00003053
:1008C000AB000030AA0034080319672C682C6D2C8B
:1008D0003908031D6C2C6D2C762C0030A9000030DB
:1008E000A8000030A7000030A600532F2608F20011
:1008F0002C080A168A11A1250A128A11730883127C
:100900000313BF007208BE003E08AE00AF01B00185
:10091000B1013108B8003008B7002F08B6002E0822
:10092000B5003F08AE00AF01B001B1013108BD0014
:100930003008BC002F08BB002E08BA002708F200C0
:100940002B080A168A11A1250A128A11730883122C
:100950000313BF007208BE003E08AE00AF01B00135
:10096000B1012E08B5072F0803110318013E031922
:10097000BA2CB607300803110318013E0319C12C25
:10098000B707310803110318013E0319C82CB80733
:100990003F08AE00AF01B001B1012E08BA072F0821
:1009A00003110318013E0319D62CBB0730080311AD
:1009B0000318013E0319DD2CBC073108031103188D
:1009C000013E0319E42CBD072808F2002A080A1684
:1009D0008A11A1250A128A11730883120313BF001A
:1009E0007208BE003E08AE00AF01B001B1012E0892
:1009F000B5072F0803110318013E0319002DB60790
:100A0000300803110318013E0319072DB7073108F9
:100A100003110318013E03190E2DB8073F08AE005D
:100A2000AF01B001B1012E08BA072F080311031856
:100A3000013E03191C2DBB07300803110318013EAA
:100A40000319232DBC07310803110318013E0319B4
:100A50002A2DBD070830AE000310B50DB60DB70D39
:100A6000B80DAE0B2C2D2708F2002A080A168A11A1
:100A7000A1250A128A11730883120313BF0072089A
:100A8000BE003E08AE003F08AF00B001B1012E0825
:100A9000B5072F0803110318013E0319502DB6079F
:100AA000300803110318013E0319572DB707310809
:100AB00003110318013E03195E2DB8072608F20042
:100AC0002B080A168A11A1250A128A1173088312AB
:100AD0000313BF007208BE003E08AE003F08AF001F
:100AE000B001B1012E08B5072F0803110318013E0C
:100AF00003197B2DB607300803110318013E0319B3
:100B0000822DB707310803110318013E0319892DFF
:100B1000B8070830AE000310B50DB60DB70DB80D0F
:100B2000AE0B8B2D2608F2002A080A168A11A12581
:100B30000A128A11730883120313BF007208BE00E1
:100B40003E08AE003F08AF00B001B1012E08B50766
:100B50002F0803110318013E0319AF2DB607300803
:100B600003110318013E0319B62DB707310803110D
:100B70000318013E0319BD2DB8072708F2002C0801
:100B80000A168A11A1250A128A1173088312031307
:100B9000BF007208BE003E08AE003F08AF00B001C3
:100BA000B1012E08BA072F0803110318013E0319DB
:100BB000DA2DBB07300803110318013E0319E12D9C
:100BC000BC07310803110318013E0319E82DBD07C6
:100BD0002808F2002B080A168A11A1250A128A1188
:100BE000730883120313BF007208BE003E08AE00F4
:100BF0003F08AF00B001B1012E08BA072F0803115A
:100C00000318013E0319052EBB0730080311031812
:100C1000013E03190C2EBC07310803110318013ED5
:100C20000319132EBD072808F2002C080A168A1192
:100C3000A1250A128A11730883120313BF007208D8
:100C4000BE003E08AE003F08AF00B001B101083061
:100C50000310AE0DAF0DB00DB10DFF3E031D282EDC
:100C60002E08BA072F0803110318013E0319392E65
:100C7000BB07300803110318013E0319402EBC07BF
:100C8000310803110318013E0319472EBD0735082B
:100C9000AE003608AF003708B0003808B100183091
:100CA0000310B10CB00CAF0CAE0CFF3E031D502E68
:100CB0002E08BA072F0803110318013E0319612EED
:100CC000BB07300803110318013E0319682EBC0747
:100CD000310803110318013E03196F2EBD070830B8
:100CE000AE000310B50DB60DB70DB80DAE0B712EDD
:100CF00039083407AE00AF01AF0D2E08823EBE00AA
:100D00002F080318013EFF3EBF00A32E0130AE00A6
:100D10000310BA0DBB0DBC0DBD0DAE0B882EB81F58
:100D2000922E932E942E3A140130AE000310B50D7E
:100D3000B60DB70DB80DAE0B962EFF30BE070318DB
:100D4000BF0AFF30BF07BC1FA62EA72E862EB401F8
:100D5000B81FAB2EAC2EC82EFF303505AE00FF30CD
:100D60003605AF00FF303705B0007F303805B100E1
:100D7000310830042F042E040319BF2EC02EC32EB9
:100D8000B401B40AC82E3A1CC62EC72EC82EC02ED7
:100D900034080319CC2ECD2EFE2E0130BA070030B8
:100DA00003180130BB07003003180130BC070030C6
:100DB00003180130BD073D1CDE2EDF2EFE2E3A0843
:100DC000AE003B08AF003C08B0003D08B100013068
:100DD000B200310DB10CB00CAF0CAE0CB20BE92E61
:100DE0003108BD003008BC002F08BB002E08BA0037
:100DF0000130BE070318BF0A0030BF073F08803A22
:100E0000FF0080307F02031D072FFF303E02031CCE
:100E10000A2F0B2F162F7F3083120313BD00803053
:100E2000BC000030BB000030BA00472F8312031310
:100E30003F08803AFF0080307F02031D212F0130E0
:100E40003E020318242F252F312F00308312031365
:100E5000BD000030BC000030BB000030BA00B30160
:100E6000472F831203133E08B900FF30BA05FF3045
:100E7000BB057F30BC050030BD05391C402F412F1C
:100E8000422FBC173908AE0003102E0CBD003308EA
:100E9000FF007F08BD043D08A9003C08A8003B08EE
:100EA000A7003A08A6000800003083120313480583
:100EB000D00000304905D10080304A05D2007F3093
:100EC0004B05D3005308520451045004031D692FED
:100ED0006A2F722F0030CB000030CA000030C900EA
:100EE0000030C80000304C05D00000304D05D10066
:100EF00080304E05D2007F304F05D3005308520496
:100F000051045004031D852F862F8E2F0030CF00F3
:100F10000030CE000030CD000030CC00CB1F912F30
:100F2000922FB62F0030D0000030D1000030D20018
:100F30008030D3004808D0024908031C490FA12F74
:100F4000A22FD1024A08031C4A0FA72FA82FD202B2
:100F50004B08031C4B0FAD2FAE2FD3025308CB0011
:100F60005208CA005108C9005008C800CF1FB92F45
:100F7000BA2FDE2F0030D0000030D1000030D20078
:100F80008030D3004C08D0024D08031C4D0FC92FF0
:100F9000CA2FD1024E08031C4E0FCF2FD02FD202E2
:100FA0004F08031C4F0FD52FD62FD3025308CF0065
:100FB0005208CE005108CD005008CC008030CB063E
:100FC0008030CF064F084B02031DF02F4E084A0217
:100FD000031DF02F4D084902031DF02F4C08480255
:100FE0000318F32FF42FF62F0310F72F0314080024
:100FF0008316031306083F388600080010340134B6
:101002000A128A11F8270A128A150A168A11D62498
:101012000A128A158316031307118710831203130A
:1010220087100A168A11CD240A128A150B178B17FC
:101032000800F701F31F1E281F282628F209F309CA
:10104200F20A0319F30AF701F70AF51F29282A28D9
:101052003328F409F509F40A0319F50A0130FF00EF
:101062007F08F706F801F9017208730403193A2898
:101072003B287228F601F60A492801300310F20DC6
:10108200F30DFF3E031D3F280130FF007F08F607E6
:10109200F31F4C284D283E2801300310F80DF90D9E
:1010A200FF3E031D4E2873087502031D5A2872085D
:1010B2007402031C5D285E2865287208F402730816
:1010C200031CF503F502781401300310F30CF20C43
:1010D200FF3E031D66280130F602031D71287228A7
:1010E2004D2877080319762877287C28F809F9090A
:1010F200F80A0319F90A7908F3007808F2000800DF
:10110200031083120313420D430DC9004908031D46
:101112008B288C2895280030C3000030C200003094
:10112200C1000030C000F8284008C4004108C500D2
:101132004208C6004308C7001F300310C70CC60C84
:10114200C50CC40CFF3E031D9E284408C800C217EC
:10115200FF30C005FF30C105FF30C2050030C305B6
:101162009630C902C91FB628B728D1284908803A43
:10117200973E0318BD28BE28BF288C2801300310D3
:10118200C30CC20CC10CC00CFF3E031DC0280130B1
:10119200FF007F08C907031DCF28D028BF28E828F1
:1011A20020304902031CD628D728E3288C28013096
:1011B200C4000310C00DC10DC20DC30DC40BDA284B
:1011C2000130C9024908031DE728E828D828480841
:1011D2000319EC28ED28F828C009C109C209C3097E
:1011E200C00A0319C10A0319C20A0319C30A080073
:1011F20083120313A00020080319002901291529CD
:10120200F51F0429052915297209A2007309A300F3
:101212007409A4007509A500A20A0319A30A0319F7
:10122200A40A0319A50A1D297508A5007408A400BB
:101232007308A3007208A200750874047304720490
:10124200031D242925292E290030F5000030F40041
:101252000030F3000030F200B2299630A1003E299E
:101262000130FF007F08A10701300310A50CA40C78
:10127200A30CA20CFF3E031D3629FE302505031DDB
:1012820043294429312960290130FF007F08A10741
:101292000130A207003003180130A3070030031801
:1012A2000130A407003003180130A50701300310F4
:1012B200A50CA40CA30CA20CFF3E031D5829FF3061
:1012C2002505031D65296629452972290130A102D8
:1012D2000130F6000310A20DA30DA40DA50DF60B0F
:1012E2006B29A41B752976297C2902302102031857
:1012F2007B297C29672921187F2980298829FF30A9
:10130200A205FF30A3057F30A405FF30A505031019
:10131200A10C2108F600F701F801F90118300310B9
:10132200F60DF70DF80DF90DFF3E031D9029760815
:10133200A2047708A3047808A4047908A504200865
:101342000319A429A529AA29F51FA829A929AA2987
:10135200A5172508F5002408F4002308F300220845
:10136200F2000800582A2130EA00EB01802A2930D5
:10137200EA00B6292D30EA00B6297A08003A0319A4
:10138200B829013A0319B429033A0319B829013AD1
:101392000319BB29073A0319BB29802A2B30EA001B
:1013A200B6293230EA00B6293930EA00B6297A087D
:1013B200003A0319D229013A0319CF29033A031932
:1013C200D229013A0319D529073A0319D529802AC6
:1013D2001A30EA00B6293330EA00B6297A08003A10
:1013E2000319E929013A0319E929033A0319E929F9
:1013F200013A0319EC29073A0319EC29802A103023
:10140200EA00EB01EB0A802A2430EA00022A2430A7
:10141200EA00B6291D30EA00B6292E30EA00B629C4
:101422003530EA00B629EA01022A7A08003A03199D
:10143200112A013A03190E2A033A0319112A013A11
:101442000319142A073A0319142A802A1230EA00CF
:10145200B6291430EA00B6297A08003A03192A2A72
:10146200013A0319272A033A03192A2A013A0319CE
:101472002A2A073A03192A2A802A0630EA00B629BC
:101482001030EA00B6291530EA00B6297A08003A87
:101492000319442A013A0319412A033A0319442A37
:1014A200013A0319E929073A0319E929802A831223
:1014B20003136C08003A0319BE29013A0319D8290B
:1014C200033A0319EF29013A0319002A073A0319CB
:1014D200052A013A0319082A033A03190B2A013A89
:1014E2000319162A0F3A03192D2A013A03193E2A23
:1014F200033A0319472A013A0319472A802A0800A6
:1015020083120313A50010306D06031D892A8A2A4F
:10151200922A0A168A11E1240A128A1583120313E7
:10152200EC0137302506031D972A982AAA2A013092
:10153200FF007F08EC070A168A11E1240A128A15B5
:101542000C30831203136C06031DA82AA92AAA2AA7
:10155200EC012430A0009030A1008030A2000A16D5
:101562008A11CA250A128A152A3083120313A0008F
:101572008030A100C030A2000A168A11CA250A12C0
:101582008A150A30831203136C020318C92ACA2A65
:10159200082B6C08A3002307A03E840083130008D5
:1015A200A000840A00088403A100C230A2000A1627
:1015B2008A11CA250A128A15831203136C08A30022
:1015C2002307A23E840083130008A000840A0008B7
:1015D2008403A1009230A2000A168A11CA250A12B7
:1015E2008A15831203136C08A3002307A43E840008
:1015F20083130008A000840A00088403A100D230EB
:10160200A2000A168A11CA250A128A15892B0A30E3
:101612006C06031D0D2B0E2B4A2B6C08A30023070F
:10162200A03E840083130008A000840A00088403FB
:10163200A100C230A2000A168A11CA250A128A150E
:10164200831203136C08A3002307A23E84008313B2
:101652000008A000840A00088403A1009230A200BE
:101662000A168A11CA250A128A158316031320083C
:1016720083120313A000831603132108831203139A
:10168200A100D230A2000A168A11CA250A128A15AE
:10169200892B0B306C06031D4F2B502B892B6C08AA
:1016A200A3002307A03E840083130008A000840A3D
:1016B20000088403A100C230A2000A168A11CA25BA
:1016C2000A128A1583160313200883120313A0003B
:1016D20083160313210883120313A1009230A20080
:1016E2000A168A11CA250A128A15831603132208BA
:1016F20083120313A0008316031323088312031318
:10170200A100D230A2000A168A11CA250A128A152D
:10171200080083120313A50011306D06031D922BDE
:10172200932B992BFA010A168A11E1240A128A15BF
:101732003730831203132506031DA02BA12BB52BD3
:101742000130FF007F08FA070130FF007F08FA0727
:1017520006307A06031DAE2BAF2BB02BFA010A1608
:101762008A11E1240A128A15883083120313A00019
:101772009030A1008030A2000A168A11CA250A12EE
:101782008A15C03083120313A0002A300A168A1168
:1017920001250A128A1503307A020318D12BD22BA3
:1017A200122C7A0883120313A3002307B83E840085
:1017B20083130008A000840A00088403A100C23039
:1017C200A2000A168A11CA250A128A157A088312F9
:1017D2000313A3002307BA3E840083130008A0006A
:1017E200840A00088403A1009230A2000A168A111A
:1017F200CA250A128A157A0883120313A300230743
:10180200BC3E840083130008A000840A00088403FD
:10181200A100D230A2000A168A11CA250A128A151C
:10182200972C03307A06031D172C182C562C7A0895
:1018320083120313A3002307B83E84008313000816
:10184200A000840A00088403A100C230A2000A1684
:101852008A11CA250A128A157A0883120313A30071
:101862002307BA3E840083130008A000840A0008FC
:101872008403A1009230A2000A168A11CA250A1214
:101882008A1583160313380883120313A0008316E4
:101892000313390883120313A100D230A2000A16DF
:1018A2008A11CA250A128A15972C04307A06031D5A
:1018B2005B2C5C2C972C7A0883120313A30023075A
:1018C200B83E840083130008A000840A0008840341
:1018D200A100C230A2000A168A11CA250A128A156C
:1018E20083160313380883120313A000831603130D
:1018F200390883120313A1009230A2000A168A113A
:10190200CA250A128A15831603133A08831203138F
:10191200A000831603133B0883120313A100D230E5
:10192200A2000A168A11CA250A128A1508000A128A
:101932008A1501200A128A15543083120313A0005B
:101942009030A1008130A2000A168A11CA250A121B
:101952008A15CD3083120313A0009030A100C43049
:10196200A2000A168A11CA250A128A153530831274
:101972000313A0009030A1009130A2000A168A1130
:10198200CA250A128A15D92CB83083120313DB0038
:101992000B30DC000130DB020030031CDC03DC0214
:1019A2005B0A031DD82C5C0A031DD82CD92CCB2C26
:1019B20001300A168A1141270A128A152F3A031D8D
:1019C200E32CE42CC52C0A168A11E4260A128A1585
:1019D20001300A168A1141270A128A15831203134B
:1019E200DF00B830DD000B30DE000130DD020030F8
:1019F200031CDE03DE025D0A031D032D5E0A031DC6
:101A0200032D042DF62CB7305F06031D092D0A2D78
:101A1200142D6E03031D0E2D0F2D142D0230EE001A
:101A22001130ED00552DB7305F06031D192D1A2D0B
:101A3200552D02306E06031D1F2D202D552D0A1225
:101A42008A15B3210A128A15033083120313EE009A
:101A52000A168A11E1240A128A156F3083120313BF
:101A6200A0009030A1008130A2000A168A11CA2576
:101A72000A128A15AC3083120313A0009030A10021
:101A8200C130A2000A168A11CA250A128A15D73055
:101A920083120313A0009030A1009130A2000A1615
:101AA2008A11CA250A128A152F30831203135F0680
:101AB200031D5C2D5D2D932D05306E06031D622DD9
:101AC200632D932D121507150430EE00932D5F0838
:101AD2000A128A1581220A128A15A12D5F080A129A
:101AE2008A158A230A128A15A12D2F305F06031D3B
:101AF2007B2D7C2D812D0430EE001230ED00A12DC6
:101B02001F305F06031D862D872DA12DEE01EE0AE3
:101B12001030ED00E92C5F080A128A1149200A12DE
:101B22008A15A12D6E08013A0319682D033A03198B
:101B32006F2D013A0319762D073A03198C2DA12D29
:101B420083120313ED01E92C0A128A110C2875087D
:101B5200803983120313A8007508A0002007AA0089
:101B6200F41FB42DB52DB62D2A142A080319BA2D47
:101B7200BB2DCB2D2A0A031DBF2DC02DC82D003031
:101B8200F5000030F4000030F3000030F200F417EA
:101B9200F501D32D0030F5000030F4000030F300E1
:101BA2000030F20079088039A900290828060319B3
:101BB200DB2DDC2DDD2D28177908A0002007A900D8
:101BC200F81FE42DE52DE62D291429080319EA2D25
:101BD200EB2DFB2D290A031DEF2DF02DF82D0030E2
:101BE200F9000030F8000030F7000030F600F81776
:101BF200F901032E0030F9000030F8000030F70040
:101C02000030F6002A0829020318082E092E2F2E6A
:101C1200281F0C2E0D2E112E8030FF007F08A806E3
:101C22002A08AB002908AA002B08A9007208AB00F9
:101C32007608F2002B08F6007308AB007708F30071
:101C42002B08F7007408AB007808F4002B08F800A2
:101C52007508AB007908F5002B08F900AB012908DB
:101C6200A000A1012108A3002A082002A200031C4F
:101C7200A3032308803AFF0080307F02031D432E16
:101C82001A302202031C462E472E7E2E750874043B
:101C920073047204031D4E2E502E0130512E00305B
:101CA20083120313AB000030F5000030F400003063
:101CB200F3000030F2002908AA00862E2B1C622EA7
:101CC200632E6A2E2B08A0000310200C0138AB00F3
:101CD2006C2E0310AB0C721C6F2E702E712EAB1774
:101CE2000130A000750DF50CF40CF30CF20CA00BF6
:101CF200732E0130FF007F08AA07831203132908FD
:101D02002A02031C852E862E5F2E281B892E8A2EE0
:101D1200D32E2A08031D8E2E8F2E982E0030F5000A
:101D22000030F4000030F3000030F200FF2F76089C
:101D3200F207770803110318013E0319A12EF307D6
:101D4200780803110318013E0319A82EF407790835
:101D520003110318013E0319AF2EF507751CB22EAD
:101D6200B32E872F2B1CB62EB72EBE2E2B08A0000B
:101D72000310200C0138AB00C02E0310AB0C721CF8
:101D8200C32EC42EC52EAB170130A000750DF50C65
:101D9200F40CF30CF20CA00BC72E0130FF007F08ED
:101DA200AA07872F7508803AFF007908803A7F02D8
:101DB200031DE52E78087402031DE52E77087302D1
:101DC200031DE52E760872020318E82EE92E412F34
:101DD200FF30A000FF30A100FF30A200FF30A300BF
:101DE2007608A4007708A5007808A6007908A7005D
:101DF2007208A4027308031C730F002F012FA5029F
:101E02007408031C740F062F072FA6027508031C03
:101E1200750F0C2F0D2FA7022408A0072508031801
:101E2200250F142F152FA10726080318260F1A2F86
:101E32001B2FA20727080318270AA3072308F50068
:101E42002208F4002108F3002008F2008030FF008D
:101E52007F08A806AB09AB0A2B08031D312F322FCE
:101E62004F2F0130F207003003180130F307003022
:101E720003180130F407003003180130F5074F2F23
:101E82007608F2027708031C770FF3027808031C26
:101E9200780FF4027908031C790FF50275087404AF
:101EA20073047204031D562F572F832F2B08031D13
:101EB2005B2F5C2F832F0030F5000030F4000030E0
:101EC200F3000030F200FF2F0130A0000310F20DEA
:101ED200F30DF40DF50DA00B672FAB1F712F722FB1
:101EE200732F72142B1C762F772F7A2F0314AB0DBE
:101EF2007C2F0310AB0D2A080319802F812F832F0B
:101F02000130AA02F41F862F872F652FA901AB1F6C
:101F12008B2F8C2F9A2F2B087F390319912F922FF9
:101F2200952FA901A90A9A2F721C982F992F9A2FDF
:101F3200922F290803199E2F9F2FD32F0130F207CA
:101F4200003003180130F307003003180130F407A2
:101F5200003003180130F507751CB02FB12FD32FB5
:101F62007208A0007308A1007408A2007508A300FB
:101F72000130A400230DA30CA20CA10CA00CA40BF5
:101F8200BB2F2308F5002208F4002108F3002008E3
:101F9200F2002A0A0319CE2FCF2FD32F0130FF00D0
:101FA2007F08AA072A0A0319D72FD82FDD2F2A085C
:101FB200031DDC2FDD2FEB2F0030F5000030F40085
:101FC2000030F3000030F2002A08031DE92FEA2F47
:101FD200EB2FA8012A1CEE2FEF2FF12FF417F52F6C
:101FE2007F30FF007F08F4052A08A0000310200CB0
:101FF200F500A81FFD2FFE2FFF2FF517080035341F
:102002002D34533454344134523454342034203433
:1020120036342D345034413455345334453420341D
:102022000034503472346F346734723461346D3436
:10203200203443346F346D3470346C34653474340A
:102042006534643400345734613473346834693429
:102052006E3467342034503472346F3467347234DF
:1020620061346D34733400345734613473346834FA
:1020720069346E34673420344D34613463346834E7
:1020820069346E3465340034523465346D346F34DF
:1020920076346534203443346C346F3474346834A9
:1020A20065347334003450347234653473347334A9
:1020B20020344B34653479343534203454346F341D
:1020C200003450346C3465346134733465342034F4
:1020D20043346C346F3473346534003450347234A6
:1020E200653473347334203453347734693474343C
:1020F200633468340034463475346E346334743473
:1021020069346F346E3420342D3420340034573423
:10211200613474346534723420344C34653476342A
:1021220065346C34003450346F347734653472342F
:1021320069346E34673420344F346E34003444349E
:102142006F346F34723420343A3420346F34703444
:1021520065346E3400345334573435343A342034D1
:10216200533454344134523454340034413471348D
:10217200753461342034733474346F34723465349A
:102182000034453463346F3443346F3474347434FC
:102192006F346E347334003450346F3477346534B2
:1021A200723420344F344E34203400345334573494
:1021B20036343A342034533454344F3450340034A7
:1021C20053347434613469346E3477346134733423
:1021D20068340034443465346C34693463346134B3
:1021E2007434653473340034423465346434733483
:1021F200683465346534743473340034573461346C
:102202007334683420346F346E346C34793400346F
:10221200523469346E34733465342B34443472343A
:102222007934003444347234793420346F346E3467
:102232006C347934003428344D344D343A345334C8
:1022420053342934003457346F346F346C3465346A
:102252006E3473340034543449344D3445343A3492
:10226200203400344D3465346434693475346D344B
:102272000034573468346934743465347334003448
:10228200543469346D3465343A3400345034723421
:102292006F3467343A340034523469346E347334F0
:1022A200653400344434613469346C347934003434
:1022B20048346534613476347934003448346934CE
:1022C200673468340034573461347334683400340A
:1022D2005334703469346E34003441347534743498
:1022E2006F3400344C346F34773400344D346134FD
:1022F20078340034FF1B852983137F188317000865
:10230200840A0319FF0A08007F087F398A0004083B
:08231200840A0319FF0A82008E
:10299A00FA308316031392008C1483120313121154
:1029AA000800831603138801091189100A168A116F
:1029BA0038260A168A110800F20101300A168A110D
:1029CA0016250A168A11A630F600F60BEA2C000024
:1029DA0008007E088A007F0882000A168A11EE24FF
:1029EA000A168A118000840A04087D060319003435
:1029FA00FF0A0319FE0AF22C83120313A100F20143
:102A0A0020080A168A1116250A168A11F201F20AF4
:102A1A008312031321080A168A1116250A168A1127
:102A2A000800F50072181A2D1E2D831203130915BA
:102A3A00212D831203130911750888008914A63001
:102A4A00F300F30B262D00008312031389101B30A9
:102A5A00F4009E30F300F30B302DF40B302D000000
:102A6A0008005334913459349134EB3490343A3465
:102A7A009134E1349034C234903424349134F534AE
:102A8A0090340934913413349134FF349034B73488
:102A9A0090346E34913473349134333491345F34D6
:102AAA00913477349134803083120313C306470874
:102ABA00F5004608F4004508F3004408F20043080C
:102ACA00F9004208F8004108F7004008F6000A1227
:102ADA008A15A8250A168A11750883120313C300DA
:102AEA007408C2007308C1007208C0000800F60129
:102AFA00F701721C812D822D882D7408F6070318A0
:102B0A00F70A7508F70701300310F40DF50DFF3EBB
:102B1A00031D892D01300310F30CF20CFF3E031D37
:102B2A00902D72087304031D9B2D9C2D7E2D770812
:102B3A00F3007608F200080083120313A400A00130
:102B4A00A1017208F400F5017408A2007508A30037
:102B5A00241CB02DB12DB72D2208A0070318A10AF5
:102B6A002308A10701300310A20DA30DFF3E031D88
:102B7A00B82D0310A40C2408031DC42DC52DAD2D9A
:102B8A002108F3002008F2000800F201831203135F
:102B9A0022080A168A1116250A168A11EC2DF20144
:102BAA00F20A2108FF00200884000A168A117B21F4
:102BBA000A168A110A168A1116250A168A1101306E
:102BCA0083120313A0070318A10A0030A107831276
:102BDA0003132108FF00200884000A168A117B21AA
:102BEA000A168A11003A031DFB2DFC2DD42D08006C
:102BFA00831203138C1C022E032E312E01308316EE
:102C0A000313C2070318C30A0030C3072030420661
:102C1A004E3003194306031D132E142E2F2EC20104
:102C2A00C301831203136A0803191C2E1D2E202EBA
:102C3A000130EA022E2E6A08031D242E252E2E2E7E
:102C4A006B080319292E2A2E2E2E0130EB023B3057
:102C5A00EA008C1083128C1071088A00700E8300AF
:102C6A00FE0E7E0E0900C330F700CD30F600F60BDB
:102C7A003C2EF70B3C2EF20133300A168A11162528
:102C8A000A168A111B30F7009E30F600F60B4B2EFF
:102C9A00F70B4B2E0000F20133300A168A11162563
:102CAA000A168A11A630F600F60B592E0000F20118
:102CBA0033300A168A1116250A168A11642E652ED1
:102CCA000000F20130300A168A1116250A168A11F6
:102CDA00A630F600F60B6F2E0000F20101300A163C
:102CEA008A1116250A168A11A630F600F60B7B2ED3
:102CFA000000F2010C300A168A1116250A168A11EA
:102D0A00A630F600F60B872E00000800F701F51F23
:102D1A008F2E902E972EF409F509F40A0319F50A55
:102D2A00F701F70AF31F9A2E9B2EA02EF209F30938
:102D3A00F20A0319F30A720873040319A52EA62EC0
:102D4A00D52EF601F60AB42E01300310F20DF30D5A
:102D5A00FF3E031DAA2E0130FF007F08F607F31F6E
:102D6A00B72EB82EA92E73087502031DBE2E72083F
:102D7A007402031CC12EC22EC82E7208F4027308F4
:102D8A00031CF503F50201300310F30CF20CFF3EAD
:102D9A00031DC92E0130F602031DD42ED52EB82EDE
:102DAA0077080319D92EDA2EDF2EF409F509F40A69
:102DBA000319F50A7508F3007408F2000800831273
:102DCA000313A6012608803EA000FF300A168A11C6
:102DDA0001250A168A110130FF007F0883120313A6
:102DEA00A60710302602031CFB2EFC2EE72E943079
:102DFA00A0009030A100C230A2000A168A11CA258A
:102E0A000A168A11353083120313A0009030A100EC
:102E1A009130A2000A168A11CA250A168A1183124B
:102E2A000313A7012708D03EA000FF300A168A1113
:102E3A0001250A168A110130FF007F088312031345
:102E4A00A70710302702031C2B2F2C2F172F1A30FD
:102E5A0083120313A5005E30A4006D30A300A30BF8
:102E6A00342FA40B342FA50B342F3B2F0A168A11AB
:102E7A00E1240A168A110800F3007308031D462F7D
:102E8A00472F4C2F8312031306083F399F2F3F30D9
:102E9A00831203130605F2003F3072060319562FF8
:102EAA00572F622F7B0803195B2F5C2F622FFB01C0
:102EBA00E90106083F39E8009E2F7B08031D662FAB
:102ECA00672F792F06083F396806031D6D2F6E2F6D
:102EDA00792F1E3069020318732F742F792F01304E
:102EEA00FF007F08E9079E2F1E306906031D7E2F0B
:102EFA007F2F862F0130FF007F08E9076808803896
:102F0A009F2F3F300605F2003F307206031D8E2FB9
:102F1A008F2F9E2F7B08031D932F942F9E2FFB012B
:102F2A00FB0A1E30690203189B2F9C2F9E2F6808EC
:102F3A009F2F3F300800831203130618A52FA62FD0
:102F4A00FF2F0711121187140A168A11E1240A1693
:102F5A008A11A03083120313A0009030A1008030A0
:102F6A00A2000A168A11CA250A168A116230831229
:102F7A000313A0009030A1009030A2000A168A1113
:102F8A00CA250A168A1183120313061CCD2FCE2FC7
:102F9A00C82F0A168A11E1240A168A117C30831274
:102FAA000313A0009030A1008030A2000A168A11F3
:102FBA00CA250A168A112C3083120313A0009130F5
:102FCA00A100C030A2000A168A11CA250A168A115F
:102FDA00003083120313A0009030A100D030A20069
:102FEA000A168A11CA250A168A11831203130715AB
:062FFA001215871008000B
:02400E00FB3F76
:00000001FF
